{
    "_format": "hh-sol-artifact-1",
    "contractName": "WEB3RSVP",
    "sourceName": "contracts/Lock.sol",
    "abi": [
        {
            "anonymous": false,
            "inputs": [
                {
                    "indexed": false,
                    "internalType": "bytes32",
                    "name": "eventId",
                    "type": "bytes32"
                },
                {
                    "indexed": false,
                    "internalType": "address",
                    "name": "attendeeAddress",
                    "type": "address"
                }
            ],
            "name": "ConfirmedAttendee",
            "type": "event"
        },
        {
            "anonymous": false,
            "inputs": [
                {
                    "indexed": false,
                    "internalType": "bytes32",
                    "name": "eventId",
                    "type": "bytes32"
                }
            ],
            "name": "DepositsPaidOut",
            "type": "event"
        },
        {
            "anonymous": false,
            "inputs": [
                {
                    "indexed": false,
                    "internalType": "bytes32",
                    "name": "eventId",
                    "type": "bytes32"
                },
                {
                    "indexed": false,
                    "internalType": "address",
                    "name": "eventOwner",
                    "type": "address"
                },
                {
                    "indexed": false,
                    "internalType": "uint256",
                    "name": "eventTimestamp",
                    "type": "uint256"
                },
                {
                    "indexed": false,
                    "internalType": "uint256",
                    "name": "maxCapacity",
                    "type": "uint256"
                },
                {
                    "indexed": false,
                    "internalType": "uint256",
                    "name": "deposit",
                    "type": "uint256"
                },
                {
                    "indexed": false,
                    "internalType": "string",
                    "name": "eventDataCID",
                    "type": "string"
                }
            ],
            "name": "NewEventCreated",
            "type": "event"
        },
        {
            "anonymous": false,
            "inputs": [
                {
                    "indexed": false,
                    "internalType": "bytes32",
                    "name": "eventId",
                    "type": "bytes32"
                },
                {
                    "indexed": false,
                    "internalType": "address",
                    "name": "attendeeAddress",
                    "type": "address"
                }
            ],
            "name": "NewRSVP",
            "type": "event"
        },
        {
            "inputs": [
                {
                    "internalType": "bytes32",
                    "name": "eventId",
                    "type": "bytes32"
                }
            ],
            "name": "confirmAllAttendees",
            "outputs": [],
            "stateMutability": "nonpayable",
            "type": "function"
        },
        {
            "inputs": [
                {
                    "internalType": "bytes32",
                    "name": "eventId",
                    "type": "bytes32"
                },
                {
                    "internalType": "address",
                    "name": "attendee",
                    "type": "address"
                }
            ],
            "name": "confirmedAttendee",
            "outputs": [],
            "stateMutability": "nonpayable",
            "type": "function"
        },
        {
            "inputs": [
                {
                    "internalType": "uint256",
                    "name": "eventTimestamp",
                    "type": "uint256"
                },
                {
                    "internalType": "uint256",
                    "name": "deposit",
                    "type": "uint256"
                },
                {
                    "internalType": "uint256",
                    "name": "maxCapacity",
                    "type": "uint256"
                },
                {
                    "internalType": "string",
                    "name": "eventDataCID",
                    "type": "string"
                }
            ],
            "name": "createNewEvent",
            "outputs": [],
            "stateMutability": "nonpayable",
            "type": "function"
        },
        {
            "inputs": [
                {
                    "internalType": "bytes32",
                    "name": "eventId",
                    "type": "bytes32"
                }
            ],
            "name": "createNewRSVP",
            "outputs": [],
            "stateMutability": "payable",
            "type": "function"
        },
        {
            "inputs": [
                {
                    "internalType": "bytes32",
                    "name": "",
                    "type": "bytes32"
                }
            ],
            "name": "idToEvent",
            "outputs": [
                {
                    "internalType": "bytes32",
                    "name": "eventId",
                    "type": "bytes32"
                },
                {
                    "internalType": "string",
                    "name": "eventDataCID",
                    "type": "string"
                },
                {
                    "internalType": "address",
                    "name": "eventOwner",
                    "type": "address"
                },
                {
                    "internalType": "uint256",
                    "name": "eventTimestamp",
                    "type": "uint256"
                },
                {
                    "internalType": "uint256",
                    "name": "deposit",
                    "type": "uint256"
                },
                {
                    "internalType": "uint256",
                    "name": "maxCapacity",
                    "type": "uint256"
                },
                {
                    "internalType": "bool",
                    "name": "paidOut",
                    "type": "bool"
                }
            ],
            "stateMutability": "view",
            "type": "function"
        },
        {
            "inputs": [
                {
                    "internalType": "bytes32",
                    "name": "eventId",
                    "type": "bytes32"
                }
            ],
            "name": "withdrawUnclaimedDeposits",
            "outputs": [],
            "stateMutability": "nonpayable",
            "type": "function"
        }
    ],
    "bytecode": "0x608060405234801561001057600080fd5b50611eab806100206000396000f3fe6080604052600436106100545760003560e01c806292098c1461005957806317f0165a14610082578063797475711461009e578063909ef021146100c757806398ea41b81461010a578063acdbe01214610133575b600080fd5b34801561006557600080fd5b50610080600480360381019061007b91906111ac565b61015c565b005b61009c6004803603810190610097919061126a565b6103d0565b005b3480156100aa57600080fd5b506100c560048036038101906100c0919061126a565b61063d565b005b3480156100d357600080fd5b506100ee60048036038101906100e9919061126a565b6108e8565b60405161010197969594939291906113aa565b60405180910390f35b34801561011657600080fd5b50610131600480360381019061012c919061144c565b6109df565b005b34801561013f57600080fd5b5061015a6004803603810190610155919061126a565b610eb8565b005b600033308787876040516020016101779594939291906114f5565b604051602081830303815290604052805190602001209050600080600083815260200190815260200160002060030154146101e7576040517f08c379a00000000000000000000000000000000000000000000000000000000081526004016101de906115a0565b60405180910390fd5b60608060405180610120016040528084815260200186868080601f016020809104026020016040519081016040528093929190818152602001838380828437600081840152601f19601f8201169050808301925050505050505081526020013373ffffffffffffffffffffffffffffffffffffffff168152602001898152602001888152602001878152602001838152602001828152602001600015158152506000808581526020019081526020016000206000820151816000015560208201518160010190805190602001906102bf929190610fda565b5060408201518160020160006101000a81548173ffffffffffffffffffffffffffffffffffffffff021916908373ffffffffffffffffffffffffffffffffffffffff160217905550606082015181600301556080820151816004015560a0820151816005015560c0820151816006019080519060200190610341929190611060565b5060e082015181600701908051906020019061035e929190611060565b506101008201518160080160006101000a81548160ff0219169083151502179055509050507f2553138c3f9c9008f266dbdbe9fc64f5b71e098d06ef714a190a65a8b9fc6bf383338a898b8a8a6040516103be97969594939291906115fc565b60405180910390a15050505050505050565b600080600083815260200190815260200160002090508060040154341461042c576040517f08c379a0000000000000000000000000000000000000000000000000000000008152600401610423906116b2565b60405180910390fd5b8060030154421115610473576040517f08c379a000000000000000000000000000000000000000000000000000000000815260040161046a9061171e565b60405180910390fd5b80600501548160060180549050106104c0576040517f08c379a00000000000000000000000000000000000000000000000000000000081526004016104b79061178a565b60405180910390fd5b60005b81600601805490508160ff16101561059a573373ffffffffffffffffffffffffffffffffffffffff16826006018260ff1681548110610505576105046117aa565b5b9060005260206000200160009054906101000a900473ffffffffffffffffffffffffffffffffffffffff1673ffffffffffffffffffffffffffffffffffffffff161415610587576040517f08c379a000000000000000000000000000000000000000000000000000000000815260040161057e90611825565b60405180910390fd5b808061059290611881565b9150506104c3565b5080600601339080600181540180825580915050600190039060005260206000200160009091909190916101000a81548173ffffffffffffffffffffffffffffffffffffffff021916908373ffffffffffffffffffffffffffffffffffffffff1602179055507fb79f4240bbdd272d98e02a5db7f0cf156e5fc000961c517670a26eeeec63ed9082336040516106319291906118ab565b60405180910390a15050565b600080600083815260200190815260200160002090508060080160009054906101000a900460ff16156106a5576040517f08c379a000000000000000000000000000000000000000000000000000000000815260040161069c90611920565b60405180910390fd5b62093a8081600301546106b89190611940565b4210156106fa576040517f08c379a00000000000000000000000000000000000000000000000000000000081526004016106f1906119e2565b60405180910390fd5b8060020160009054906101000a900473ffffffffffffffffffffffffffffffffffffffff1673ffffffffffffffffffffffffffffffffffffffff163373ffffffffffffffffffffffffffffffffffffffff161461078c576040517f08c379a000000000000000000000000000000000000000000000000000000000815260040161078390611a4e565b60405180910390fd5b6000816007018054905082600601805490506107a89190611a6e565b905060008260040154826107bc9190611aa2565b905060018360080160006101000a81548160ff02191690831515021790555060003373ffffffffffffffffffffffffffffffffffffffff168260405161080190611b2d565b60006040518083038185875af1925050503d806000811461083e576040519150601f19603f3d011682016040523d82523d6000602084013e610843565b606091505b505090508061086a5760008460080160006101000a81548160ff0219169083151502179055505b806108aa576040517f08c379a00000000000000000000000000000000000000000000000000000000081526004016108a190611b8e565b60405180910390fd5b7f393073ea1365f611c3d2f240c992960d2b99dc81715555d3fc40fc55ba80af9c856040516108d99190611bae565b60405180910390a15050505050565b600060205280600052604060002060009150905080600001549080600101805461091190611bf8565b80601f016020809104026020016040519081016040528092919081815260200182805461093d90611bf8565b801561098a5780601f1061095f5761010080835404028352916020019161098a565b820191906000526020600020905b81548152906001019060200180831161096d57829003601f168201915b5050505050908060020160009054906101000a900473ffffffffffffffffffffffffffffffffffffffff16908060030154908060040154908060050154908060080160009054906101000a900460ff16905087565b600080600084815260200190815260200160002090508060020160009054906101000a900473ffffffffffffffffffffffffffffffffffffffff1673ffffffffffffffffffffffffffffffffffffffff163373ffffffffffffffffffffffffffffffffffffffff1614610a87576040517f08c379a0000000000000000000000000000000000000000000000000000000008152600401610a7e90611c76565b60405180910390fd5b600080600090505b82600601805490508160ff161015610b72578373ffffffffffffffffffffffffffffffffffffffff16836006018260ff1681548110610ad157610ad06117aa565b5b9060005260206000200160009054906101000a900473ffffffffffffffffffffffffffffffffffffffff1673ffffffffffffffffffffffffffffffffffffffff161415610b5f57826006018160ff1681548110610b3157610b306117aa565b5b9060005260206000200160009054906101000a900473ffffffffffffffffffffffffffffffffffffffff1691505b8080610b6a90611881565b915050610a8f565b508273ffffffffffffffffffffffffffffffffffffffff168173ffffffffffffffffffffffffffffffffffffffff1614610be1576040517f08c379a0000000000000000000000000000000000000000000000000000000008152600401610bd890611ce2565b60405180910390fd5b60005b82600701805490508160ff161015610cbb578373ffffffffffffffffffffffffffffffffffffffff16836007018260ff1681548110610c2657610c256117aa565b5b9060005260206000200160009054906101000a900473ffffffffffffffffffffffffffffffffffffffff1673ffffffffffffffffffffffffffffffffffffffff161415610ca8576040517f08c379a0000000000000000000000000000000000000000000000000000000008152600401610c9f90611d4e565b60405180910390fd5b8080610cb390611881565b915050610be4565b50600015158260080160009054906101000a900460ff16151514610d14576040517f08c379a0000000000000000000000000000000000000000000000000000000008152600401610d0b90611dba565b60405180910390fd5b81600701839080600181540180825580915050600190039060005260206000200160009091909190916101000a81548173ffffffffffffffffffffffffffffffffffffffff021916908373ffffffffffffffffffffffffffffffffffffffff16021790555060008373ffffffffffffffffffffffffffffffffffffffff168360040154604051610da390611b2d565b60006040518083038185875af1925050503d8060008114610de0576040519150601f19603f3d011682016040523d82523d6000602084013e610de5565b606091505b5050905080610e385782600701805480610e0257610e01611dda565b5b6001900381819060005260206000200160006101000a81549073ffffffffffffffffffffffffffffffffffffffff021916905590555b80610e78576040517f08c379a0000000000000000000000000000000000000000000000000000000008152600401610e6f90611b8e565b60405180910390fd5b7ff8d1583a733d83bdd3ef5464129d0a95a36d62b382d31c6d0467a61f4264381b8585604051610ea99291906118ab565b60405180910390a15050505050565b600080600083815260200190815260200160002090508060020160009054906101000a900473ffffffffffffffffffffffffffffffffffffffff1673ffffffffffffffffffffffffffffffffffffffff163373ffffffffffffffffffffffffffffffffffffffff1614610f60576040517f08c379a0000000000000000000000000000000000000000000000000000000008152600401610f5790611e55565b60405180910390fd5b60005b81600601805490508160ff161015610fd557610fc283836006018360ff1681548110610f9257610f916117aa565b5b9060005260206000200160009054906101000a900473ffffffffffffffffffffffffffffffffffffffff166109df565b8080610fcd90611881565b915050610f63565b505050565b828054610fe690611bf8565b90600052602060002090601f016020900481019282611008576000855561104f565b82601f1061102157805160ff191683800117855561104f565b8280016001018555821561104f579182015b8281111561104e578251825591602001919060010190611033565b5b50905061105c91906110ea565b5090565b8280548282559060005260206000209081019282156110d9579160200282015b828111156110d85782518260006101000a81548173ffffffffffffffffffffffffffffffffffffffff021916908373ffffffffffffffffffffffffffffffffffffffff16021790555091602001919060010190611080565b5b5090506110e691906110ea565b5090565b5b808211156111035760008160009055506001016110eb565b5090565b600080fd5b600080fd5b6000819050919050565b61112481611111565b811461112f57600080fd5b50565b6000813590506111418161111b565b92915050565b600080fd5b600080fd5b600080fd5b60008083601f84011261116c5761116b611147565b5b8235905067ffffffffffffffff8111156111895761118861114c565b5b6020830191508360018202830111156111a5576111a4611151565b5b9250929050565b6000806000806000608086880312156111c8576111c7611107565b5b60006111d688828901611132565b95505060206111e788828901611132565b94505060406111f888828901611132565b935050606086013567ffffffffffffffff8111156112195761121861110c565b5b61122588828901611156565b92509250509295509295909350565b6000819050919050565b61124781611234565b811461125257600080fd5b50565b6000813590506112648161123e565b92915050565b6000602082840312156112805761127f611107565b5b600061128e84828501611255565b91505092915050565b6112a081611234565b82525050565b600081519050919050565b600082825260208201905092915050565b60005b838110156112e05780820151818401526020810190506112c5565b838111156112ef576000848401525b50505050565b6000601f19601f8301169050919050565b6000611311826112a6565b61131b81856112b1565b935061132b8185602086016112c2565b611334816112f5565b840191505092915050565b600073ffffffffffffffffffffffffffffffffffffffff82169050919050565b600061136a8261133f565b9050919050565b61137a8161135f565b82525050565b61138981611111565b82525050565b60008115159050919050565b6113a48161138f565b82525050565b600060e0820190506113bf600083018a611297565b81810360208301526113d18189611306565b90506113e06040830188611371565b6113ed6060830187611380565b6113fa6080830186611380565b61140760a0830185611380565b61141460c083018461139b565b98975050505050505050565b6114298161135f565b811461143457600080fd5b50565b60008135905061144681611420565b92915050565b6000806040838503121561146357611462611107565b5b600061147185828601611255565b925050602061148285828601611437565b9150509250929050565b60008160601b9050919050565b60006114a48261148c565b9050919050565b60006114b682611499565b9050919050565b6114ce6114c98261135f565b6114ab565b82525050565b6000819050919050565b6114ef6114ea82611111565b6114d4565b82525050565b600061150182886114bd565b60148201915061151182876114bd565b60148201915061152182866114de565b60208201915061153182856114de565b60208201915061154182846114de565b6020820191508190509695505050505050565b7f414c524541445920524547495354455245440000000000000000000000000000600082015250565b600061158a6012836112b1565b915061159582611554565b602082019050919050565b600060208201905081810360008301526115b98161157d565b9050919050565b82818337600083830152505050565b60006115db83856112b1565b93506115e88385846115c0565b6115f1836112f5565b840190509392505050565b600060c082019050611611600083018a611297565b61161e6020830189611371565b61162b6040830188611380565b6116386060830187611380565b6116456080830186611380565b81810360a08301526116588184866115cf565b905098975050505050505050565b7f4e4f5420454e4f55474800000000000000000000000000000000000000000000600082015250565b600061169c600a836112b1565b91506116a782611666565b602082019050919050565b600060208201905081810360008301526116cb8161168f565b9050919050565b7f414c52454144592048415050454e454400000000000000000000000000000000600082015250565b60006117086010836112b1565b9150611713826116d2565b602082019050919050565b60006020820190508181036000830152611737816116fb565b9050919050565b7f4d41582043415041434954590000000000000000000000000000000000000000600082015250565b6000611774600c836112b1565b915061177f8261173e565b602082019050919050565b600060208201905081810360008301526117a381611767565b9050919050565b7f4e487b7100000000000000000000000000000000000000000000000000000000600052603260045260246000fd5b7f414c524541445920434f4e4649524d4544000000000000000000000000000000600082015250565b600061180f6011836112b1565b915061181a826117d9565b602082019050919050565b6000602082019050818103600083015261183e81611802565b9050919050565b7f4e487b7100000000000000000000000000000000000000000000000000000000600052601160045260246000fd5b600060ff82169050919050565b600061188c82611874565b915060ff8214156118a05761189f611845565b5b600182019050919050565b60006040820190506118c06000830185611297565b6118cd6020830184611371565b9392505050565b7f416c726561647920506169640000000000000000000000000000000000000000600082015250565b600061190a600c836112b1565b9150611915826118d4565b602082019050919050565b60006020820190508181036000830152611939816118fd565b9050919050565b600061194b82611111565b915061195683611111565b9250827fffffffffffffffffffffffffffffffffffffffffffffffffffffffffffffffff0382111561198b5761198a611845565b5b828201905092915050565b7f546f6f204561726c790000000000000000000000000000000000000000000000600082015250565b60006119cc6009836112b1565b91506119d782611996565b602082019050919050565b600060208201905081810360008301526119fb816119bf565b9050919050565b7f4d757374204265204576656e74204f776e657200000000000000000000000000600082015250565b6000611a386013836112b1565b9150611a4382611a02565b602082019050919050565b60006020820190508181036000830152611a6781611a2b565b9050919050565b6000611a7982611111565b9150611a8483611111565b925082821015611a9757611a96611845565b5b828203905092915050565b6000611aad82611111565b9150611ab883611111565b9250817fffffffffffffffffffffffffffffffffffffffffffffffffffffffffffffffff0483118215151615611af157611af0611845565b5b828202905092915050565b600081905092915050565b50565b6000611b17600083611afc565b9150611b2282611b07565b600082019050919050565b6000611b3882611b0a565b9150819050919050565b7f4661696c656420746f2073656e64204574686572000000000000000000000000600082015250565b6000611b786014836112b1565b9150611b8382611b42565b602082019050919050565b60006020820190508181036000830152611ba781611b6b565b9050919050565b6000602082019050611bc36000830184611297565b92915050565b7f4e487b7100000000000000000000000000000000000000000000000000000000600052602260045260246000fd5b60006002820490506001821680611c1057607f821691505b60208210811415611c2457611c23611bc9565b5b50919050565b7f4e4f5420415554484f52495a4544000000000000000000000000000000000000600082015250565b6000611c60600e836112b1565b9150611c6b82611c2a565b602082019050919050565b60006020820190508181036000830152611c8f81611c53565b9050919050565b7f4e6f205253565020746f20636f6e6669726d2e00000000000000000000000000600082015250565b6000611ccc6013836112b1565b9150611cd782611c96565b602082019050919050565b60006020820190508181036000830152611cfb81611cbf565b9050919050565b7f414c524541445920434c41494d45440000000000000000000000000000000000600082015250565b6000611d38600f836112b1565b9150611d4382611d02565b602082019050919050565b60006020820190508181036000830152611d6781611d2b565b9050919050565b7f414c52454144592050414944204f555400000000000000000000000000000000600082015250565b6000611da46010836112b1565b9150611daf82611d6e565b602082019050919050565b60006020820190508181036000830152611dd381611d97565b9050919050565b7f4e487b7100000000000000000000000000000000000000000000000000000000600052603160045260246000fd5b7f4e6f7420417574686f72697a6564000000000000000000000000000000000000600082015250565b6000611e3f600e836112b1565b9150611e4a82611e09565b602082019050919050565b60006020820190508181036000830152611e6e81611e32565b905091905056fea2646970667358221220bb1e6b342771a2738652e2963ac7dbc4f67b8c9e688023e4ef12dc88b56e300664736f6c63430008090033",
    "linkReferences": {},
    "deployedLinkReferences": {}
}